:1000000045C0000060C000005EC000005CC0000091
:100010005AC0000058C0000056C0000054C0000084
:1000200052C0000050C000004EC000004CC0000094
:100030004AC0000048C0000046C0000044C00000A4
:1000400042C0000040C000003EC000003CC00000B4
:100050003AC0000038C0000036C0000034C00000C4
:1000600032C0000030C000002EC000002CC00000D4
:100070002AC0000028C0000026C0000024C00000E4
:1000800022C0000020C000001EC0000011241FBEBE
:10009000CFEFD0E1DEBFCDBF11E0A0E0B1E0ECEFEB
:1000A000F5E000E00BBF02C007900D92A630B1074B
:1000B000D9F721E0A6E0B1E001C01D92A630B20759
:1000C000E1F73AD099C29CCF8FEF8ABB1BBA089553
:1000D0009BB3892B8BBB08959BB3809598239BBBC7
:1000E000089580B58B7F80BD82B18F7C82B983B14A
:1000F00083B90895803111F08032A9F491B1982329
:10010000A9F420E030E0E0E4FCE93197F1F791B1A7
:10011000982319F42F5F3F4FF6CF253031054CF06F
:1001200081E090E0089580E090E0089580E090E024
:10013000089580E090E00895CF93DF9300D000D041
:1001400000D0CDB7DEB79DD0BFDFCBDF86E0E0E0EB
:10015000F1E0DE01119601900D928A95E1F7C12C34
:10016000D12CEE24E394F12CA12CB12C00E010E072
:1001700080E1C0DF892B41F181E00115110509F013
:1001800080E0882E912C012B79F4F601EE0FFF1FF1
:1001900081E090E08C0F9D1FE80FF91F6081718155
:1001A000C5017AD0840110C060E070E0C50174D050
:1001B0008FEF92DFAB2829F48401AA24A394B12CF9
:1001C00003C08401A12CB12C80E294DF892BC9F0FB
:1001D00001151105B1F09FEFC91AD90A83E0C816BD
:1001E000D10411F4C12CD12CF601EE0FFF1F81E0D8
:1001F00090E08C0F9D1FE80FF91F60817181C50190
:100200004BD00115110509F4B3CFE114F10451F0FD
:10021000C114D10439F48FEF5FDF80E859DF80E447
:1002200057DF1EC0E114F10459F091E0C916D10462
:1002300039F48FEF51DF80E24BDF80E149DF10C0FE
:10024000E114F10459F082E0C816D10439F48FEFBB
:1002500043DF88E03DDF84E03BDF02C08FEF3CDF1F
:1002600081E0EF2809F080E0E82EF12C88EE93E0A1
:1002700005C0E0E9F1E03197F1F701970097C9F780
:1002800077CF87B3806C87BB88B38F7388BB88E6D2
:1002900085BD14BC13BC0895CF93DF93EC01653684
:1002A000710510F064E670E080E090E0B4D020E0EA
:1002B00030E04FE753E43DD120E030E048EC52E439
:1002C00016D07DD063BDCD2B41F488B38F7B88BB26
:1002D00085B5887C846285BD07C088B3806488BB8F
:1002E00085B5887C846385BDDF91CF9108950CD05E
:1002F000E6C0DED040F0D5D030F021F45F3F19F0F9
:10030000C7C0511110C1CAC0EBD098F39923C9F3EB
:100310005523B1F3951B550BBB27AA27621773070B
:10032000840738F09F5F5F4F220F331F441FAA1FBF
:10033000A9F333D00E2E3AF0E0E830D0915050407F
:10034000E695001CCAF729D0FE2F27D0660F771F2D
:10035000881FBB1F261737074807AB07B0E809F00F
:10036000BB0B802DBF01FF2793585F4F2AF09E3FA4
:10037000510568F08DC0D7C05F3FECF3983EDCF3C9
:10038000869577956795B795F7959F5FC9F7880F1D
:10039000911D9695879597F90895E1E0660F771F6F
:1003A000881FBB1F621773078407BA0720F0621B00
:1003B000730B840BBA0BEE1F88F7E095089598D065
:1003C00088F09F5790F0B92F9927B751A0F0D1F03E
:1003D000660F771F881F991F1AF0BA95C9F712C0C8
:1003E000B13081F09FD0B1E008959CC0672F782F85
:1003F0008827B85F39F0B93FCCF386957795679534
:10040000B395D9F73EF490958095709561957F4F9F
:100410008F4F9F4F0895E89409C097FB3EF4909545
:100420008095709561957F4F8F4F9F4F9923A9F0CD
:10043000F92F96E9BB279395F6958795779567955C
:10044000B795F111F8CFFAF4BB0F11F460FF1BC0A0
:100450006F5F7F4F8F4F9F4F16C0882311F096E933
:1004600011C0772321F09EE8872F762F05C06623E1
:1004700071F096E8862F70E060E02AF09A95660F9A
:10048000771F881FDAF7880F9695879597F9089553
:1004900097F99F6780E870E060E008959FEF80EC37
:1004A000089500240A9416161706180609060895DA
:1004B00000240A9412161306140605060895092E40
:1004C0000394000C11F4882352F0BB0F40F4BF2BAF
:1004D00011F460FF04C06F5F7F4F8F4F9F4F0895EF
:1004E00057FD9058440F551F59F05F3F71F04795E5
:1004F000880F97FB991F61F09F3F79F087950895CA
:10050000121613061406551FF2CF4695F1DF08C0E8
:10051000161617061806991FF1CF86957105610505
:1005200008940895E894BB2766277727CB0197F9AD
:1005300008950BD0C4CFB5DF28F0BADF18F09523AB
:1005400009F0A6CFABCF1124EECFCADFA0F3959F61
:10055000D1F3950F50E0551F629FF001729FBB27AA
:10056000F00DB11D639FAA27F00DB11DAA1F649F56
:100570006627B00DA11D661F829F2227B00DA11D09
:10058000621F739FB00DA11D621F839FA00D611D8F
:10059000221F749F3327A00D611D231F849F600DB0
:1005A000211D822F762F6A2F11249F5750408AF0E9
:1005B000E1F088234AF0EE0FFF1FBB1F661F771F75
:1005C000881F91505040A9F79E3F510570F060CFB1
:1005D000AACF5F3FECF3983EDCF38695779567955D
:1005E000B795F795E7959F5FC1F7FE2B880F911D93
:0C05F0009695879597F90895F894FFCF31
:0605FC001E003C0064003B
:00000001FF
